KNOXM7Y10SMBENNET    TERESA    H  09092010C        075000001008202012550000
KNOXD8Y20SSHARRISON  TYLER     E  11072019C        055000001008202006000000
KNOXD6N30SSJOHNSON   KANDIE    F  12102012C        055000001210202008550000
KNOXOY9T4OWPETERS    CARLY     E  03082014M        025000000308202003550000
KNOXO8N50OWMASTERS   MARY      G  05222021C        025000000000000002500000
KNOXW9M60SAGOMEZ     SELENA    M  06292010C        030000000629202004500000
KNOXW9M70SAJANSEN    JANE      A  08062016C        030000000806202003080000
KNOXW3L80SAHARLEY    STEPHEN   J  11092017E02032018030000000000000000000000
KNOXW3D90SAYOUNG     EDWARD    S  10082010V        030000001008202004500000
KNOXW3100SASANTIAGO  HALEY     M  03122021C        030000000000000003000000
KNOXE4110SECAMERON   SHAWN     A  03222011C        040000000322202005550000
KNOXE8120SEMICHAELS  SOPHIA    J  09122012C        040000000912202005500000